{
  "address": "0xe7f1725E7734CE288F8367e1Bb143E90bb3F0512",
  "abi": [
    {
      "inputs": [
        {
          "internalType": "address",
          "name": "_register",
          "type": "address"
        }
      ],
      "stateMutability": "nonpayable",
      "type": "constructor"
    },
    {
      "anonymous": false,
      "inputs": [
        {
          "indexed": true,
          "internalType": "bytes32",
          "name": "hashedID",
          "type": "bytes32"
        },
        {
          "indexed": false,
          "internalType": "address",
          "name": "newOwner",
          "type": "address"
        },
        {
          "indexed": false,
          "internalType": "bytes32",
          "name": "newRoot",
          "type": "bytes32"
        }
      ],
      "name": "IdentityCreatChanged",
      "type": "event"
    },
    {
      "anonymous": false,
      "inputs": [
        {
          "indexed": true,
          "internalType": "bytes32",
          "name": "hashedID",
          "type": "bytes32"
        },
        {
          "indexed": false,
          "internalType": "address",
          "name": "owner",
          "type": "address"
        },
        {
          "indexed": false,
          "internalType": "bytes32",
          "name": "root",
          "type": "bytes32"
        }
      ],
      "name": "IdentityCreated",
      "type": "event"
    },
    {
      "stateMutability": "nonpayable",
      "type": "fallback"
    },
    {
      "inputs": [
        {
          "internalType": "bytes32",
          "name": "_hashedID",
          "type": "bytes32"
        },
        {
          "internalType": "uint256",
          "name": "index",
          "type": "uint256"
        },
        {
          "internalType": "address",
          "name": "_address",
          "type": "address"
        }
      ],
      "name": "changeAssociatedAddress",
      "outputs": [],
      "stateMutability": "nonpayable",
      "type": "function"
    },
    {
      "inputs": [
        {
          "internalType": "bytes32",
          "name": "_hashedID",
          "type": "bytes32"
        },
        {
          "internalType": "address",
          "name": "_address",
          "type": "address"
        }
      ],
      "name": "changeOwner",
      "outputs": [],
      "stateMutability": "nonpayable",
      "type": "function"
    },
    {
      "inputs": [
        {
          "internalType": "bytes32",
          "name": "_hashedID",
          "type": "bytes32"
        },
        {
          "internalType": "address",
          "name": "_address",
          "type": "address"
        }
      ],
      "name": "createAssociatedAddress",
      "outputs": [],
      "stateMutability": "nonpayable",
      "type": "function"
    },
    {
      "inputs": [
        {
          "internalType": "bytes32",
          "name": "_hashedID",
          "type": "bytes32"
        },
        {
          "internalType": "address",
          "name": "_owner",
          "type": "address"
        },
        {
          "internalType": "bytes32",
          "name": "_root",
          "type": "bytes32"
        }
      ],
      "name": "createIdentity",
      "outputs": [],
      "stateMutability": "nonpayable",
      "type": "function"
    },
    {
      "inputs": [
        {
          "internalType": "bytes32",
          "name": "_hashedID",
          "type": "bytes32"
        }
      ],
      "name": "getAssociatedAddress",
      "outputs": [
        {
          "internalType": "address[5]",
          "name": "",
          "type": "address[5]"
        }
      ],
      "stateMutability": "view",
      "type": "function"
    },
    {
      "inputs": [
        {
          "internalType": "bytes32",
          "name": "_hashedID",
          "type": "bytes32"
        }
      ],
      "name": "getOwnerHistory",
      "outputs": [
        {
          "internalType": "address[]",
          "name": "",
          "type": "address[]"
        }
      ],
      "stateMutability": "view",
      "type": "function"
    },
    {
      "inputs": [
        {
          "internalType": "bytes32",
          "name": "_hashedID",
          "type": "bytes32"
        },
        {
          "internalType": "address[]",
          "name": "_disableAddress",
          "type": "address[]"
        },
        {
          "internalType": "bool",
          "name": "_deleteAssociatedAddress",
          "type": "bool"
        }
      ],
      "name": "recoveryByOwnerHistory",
      "outputs": [],
      "stateMutability": "nonpayable",
      "type": "function"
    },
    {
      "inputs": [],
      "name": "register",
      "outputs": [
        {
          "internalType": "address",
          "name": "",
          "type": "address"
        }
      ],
      "stateMutability": "view",
      "type": "function"
    },
    {
      "inputs": [
        {
          "internalType": "uint256[2]",
          "name": "_proofA",
          "type": "uint256[2]"
        },
        {
          "internalType": "uint256[2][2]",
          "name": "_proofB",
          "type": "uint256[2][2]"
        },
        {
          "internalType": "uint256[2]",
          "name": "_proofC",
          "type": "uint256[2]"
        },
        {
          "internalType": "uint256[4]",
          "name": "_pubSignals",
          "type": "uint256[4]"
        }
      ],
      "name": "updateIdentity",
      "outputs": [],
      "stateMutability": "nonpayable",
      "type": "function"
    },
    {
      "inputs": [],
      "name": "verifier",
      "outputs": [
        {
          "internalType": "contract Verify_EnigmaRoot",
          "name": "",
          "type": "address"
        }
      ],
      "stateMutability": "view",
      "type": "function"
    },
    {
      "inputs": [
        {
          "internalType": "uint256[2]",
          "name": "_pA",
          "type": "uint256[2]"
        },
        {
          "internalType": "uint256[2][2]",
          "name": "_pB",
          "type": "uint256[2][2]"
        },
        {
          "internalType": "uint256[2]",
          "name": "_pC",
          "type": "uint256[2]"
        },
        {
          "internalType": "uint256[4]",
          "name": "_pubSignals",
          "type": "uint256[4]"
        }
      ],
      "name": "verifyProof",
      "outputs": [
        {
          "internalType": "bool",
          "name": "",
          "type": "bool"
        }
      ],
      "stateMutability": "view",
      "type": "function"
    }
  ],
  "transactionHash": "0x2c10f6159271f4791c00e24181fc0a5f8107cde962b534386a816e2fed594d18",
  "args": [
    "0x5FbDB2315678afecb367f032d93F642f64180aa3"
  ],
  "numDeployments": 1,
  "solcInputHash": "a738c8d065f713a232c9fbe63f796ba8",
  "bytecode": "0x60a06040523480156200001157600080fd5b506040516200379238038062003792833981810160405281019062000037919062000193565b6001600081905550600033426040516020016200005692919062000244565b604051602081830303815290604052805190602001209050806040516200007d906200011b565b8190604051809103906000f59050801580156200009e573d6000803e3d6000fd5b5073ffffffffffffffffffffffffffffffffffffffff1660808173ffffffffffffffffffffffffffffffffffffffff168152505081600260006101000a81548173ffffffffffffffffffffffffffffffffffffffff021916908373ffffffffffffffffffffffffffffffffffffffff160217905550505062000274565b610745806200304d83390190565b600080fd5b600073ffffffffffffffffffffffffffffffffffffffff82169050919050565b60006200015b826200012e565b9050919050565b6200016d816200014e565b81146200017957600080fd5b50565b6000815190506200018d8162000162565b92915050565b600060208284031215620001ac57620001ab62000129565b5b6000620001bc848285016200017c565b91505092915050565b60008160601b9050919050565b6000620001df82620001c5565b9050919050565b6000620001f382620001d2565b9050919050565b6200020f62000209826200014e565b620001e6565b82525050565b6000819050919050565b6000819050919050565b6200023e620002388262000215565b6200021f565b82525050565b6000620002528285620001fa565b60148201915062000264828462000229565b6020820191508190509392505050565b608051612db6620002976000396000818161024c01526106e60152612db66000f3fe608060405234801561001057600080fd5b50600436106100ad5760003560e01c80635fe8c13b116100715780635fe8c13b146101545780636da5ceec146101845780638216ad7a146101a05780639935f95d146101bc578063d3a5b107146101ec578063e676031214610208576100ae565b80631aa3a008146100b05780632b7ac3f3146100ce5780634717e3c9146100ec57806348a4bab5146101085780635fc6fb0614610138576100ae565b5b005b6100b8610224565b6040516100c59190611eef565b60405180910390f35b6100d661024a565b6040516100e39190611f69565b60405180910390f35b61010660048036038101906101019190612030565b61026e565b005b610122600480360381019061011d9190612083565b6104a1565b60405161012f919061215b565b60405180910390f35b610152600480360381019061014d91906121e1565b610538565b005b61016e600480360381019061016991906121e1565b6107d1565b60405161017b9190612265565b60405180910390f35b61019e60048036038101906101999190612400565b610d51565b005b6101ba60048036038101906101b5919061246f565b611184565b005b6101d660048036038101906101d19190612083565b6113df565b6040516101e39190612546565b60405180910390f35b6102066004803603810190610201919061246f565b611483565b005b610222600480360381019061021d9190612568565b61178b565b005b600260009054906101000a900473ffffffffffffffffffffffffffffffffffffffff1681565b7f000000000000000000000000000000000000000000000000000000000000000081565b8260006001600083815260200190815260200160002060000160009054906101000a900473ffffffffffffffffffffffffffffffffffffffff1673ffffffffffffffffffffffffffffffffffffffff163373ffffffffffffffffffffffffffffffffffffffff1614156102e4576001905061039f565b60005b6001600084815260200190815260200160002050600581101561039d5760016000848152602001908152602001600020600201816005811061032c5761032b6125bb565b5b0160009054906101000a900473ffffffffffffffffffffffffffffffffffffffff1673ffffffffffffffffffffffffffffffffffffffff163373ffffffffffffffffffffffffffffffffffffffff16141561038a576001915061039d565b808061039590612619565b9150506102e7565b505b806103df576040517f08c379a00000000000000000000000000000000000000000000000000000000081526004016103d6906126e5565b60405180910390fd5b6103e7611ab4565b6005841061042a576040517f08c379a000000000000000000000000000000000000000000000000000000000815260040161042190612751565b60405180910390fd5b82600160008781526020019081526020016000206002018560058110610453576104526125bb565b5b0160006101000a81548173ffffffffffffffffffffffffffffffffffffffff021916908373ffffffffffffffffffffffffffffffffffffffff16021790555061049a611b04565b5050505050565b6104a9611e5f565b6001600083815260200190815260200160002060020160058060200260405190810160405280929190826005801561052c576020028201915b8160009054906101000a900473ffffffffffffffffffffffffffffffffffffffff1673ffffffffffffffffffffffffffffffffffffffff16815260200190600101908083116104e2575b50505050509050919050565b610540611ab4565b61056184600060028110610557576105566125bb565b5b6020020135611b0e565b61058284600160028110610578576105776125bb565b5b6020020135611b0e565b6105ba83600060028110610599576105986125bb565b5b604002016000600281106105b0576105af6125bb565b5b6020020135611b0e565b6105f2836000600281106105d1576105d06125bb565b5b604002016001600281106105e8576105e76125bb565b5b6020020135611b0e565b61062a83600160028110610609576106086125bb565b5b604002016000600281106106205761061f6125bb565b5b6020020135611b0e565b61066283600160028110610641576106406125bb565b5b60400201600160028110610658576106576125bb565b5b6020020135611b0e565b61068382600060028110610679576106786125bb565b5b6020020135611b0e565b6106a48260016002811061069a576106996125bb565b5b6020020135611b0e565b60005b60048110156106e3576106d08282600481106106c6576106c56125bb565b5b6020020135611b0e565b80806106db90612619565b9150506106a7565b507f000000000000000000000000000000000000000000000000000000000000000073ffffffffffffffffffffffffffffffffffffffff16635fe8c13b858585856040518563ffffffff1660e01b8152600401610743949392919061285f565b602060405180830381865afa158015610760573d6000803e3d6000fd5b505050506040513d601f19601f8201168201806040525081019061078491906128bb565b6107c3576040517f08c379a00000000000000000000000000000000000000000000000000000000081526004016107ba90612934565b60405180910390fd5b6107cb611b04565b50505050565b6000610cee565b7f30644e72e131a029b85045b68181585d97816a916871ca8d3c208c16d87cfd478110610809576000805260206000f35b50565b600060405183815284602082015285604082015260408160608360076107d05a03fa91508161083f576000805260206000f35b825160408201526020830151606082015260408360808360066107d05a03fa91508161086f576000805260206000f35b505050505050565b600060808601600087017f279388a26a1469cdde3f30df161dbdf10e27ce7ead435e66d5c2a2098f8d0f0681527f1c262578e6885e8f27a2cd6187b07300991dc744aa02d528b528481edf19ec85602082015261091a60008801357f1c1d92aeeaa9372de1bc7887c4a4247416d7586614f04599f0af3e6fd9a1a5137f286a8102b8c3d1f851c36ad1c8108ff15c0dafb77794d58e3cf38bfd769f7fb08461080c565b61096a60208801357f0ae3ba8035f8d5014b8a57d1fd2c886d9eda7e8709f162960add8bdba0d6693b7f0e2b7af7afd0f9d743ceb8db8f315f709e296ea2d032afdea2546db9e3827f378461080c565b6109ba60408801357f16fb9adb378a72a0a21fb9dce2cead6cc8c07ead310e40bd331a12536b2490e07f25b163240658542ce8c6133d65468a8797c862b25ef6b7ed3a1f9de31a8a78818461080c565b610a0a60608801357f03407c16b4872ceaa6d209c7023491a82ee118e9e90927cd67965258ca53ede37f0ca097bbd8c8d267857100a90c0a43868ec8a6e6fc16bb07cfdc0ec32af924c68461080c565b833582527f30644e72e131a029b85045b68181585d97816a916871ca8d3c208c16d87cfd4760208501357f30644e72e131a029b85045b68181585d97816a916871ca8d3c208c16d87cfd4703066020830152843560408301526020850135606083015260408501356080830152606085013560a08301527f2d4d9aa7e302d9df41749d5507949d05dbea33fbb16c643b22f599a2be6df2e260c08301527f14bedd503c37ceb061d8ec60209fe345ce89830a19230301f076caff004d192660e08301527f0967032fcbf776d1afc985f88877f182d38480a653f2decaa9794cbc3bf3060c6101008301527f0e187847ad4c798374d0d6732bf501847dd68bc0e071241e0213bc7fc13db7ab6101208301527f304cfbd1e08a704a99f5e847d93f8c3caafddec46b7a0d379da69a4d112346a76101408301527f1739c1b1a457a8c7313123d24d2f9192f896b7c63eea05a9d57f06547ad0cec8610160830152600088015161018083015260206000018801516101a08301527f198e9393920d483a7260bfb731fb5d25f1aa493335a9e71297e485b7aef312c26101c08301527f1800deef121f1e76426a00665e5c4479674322d4f75edadd46debd5cd992f6ed6101e08301527f090689d0585ff075ec9e99ad690c3395bc4b313370b38ef355acdadcd122975b6102008301527f12c85ea5db8c6deb4aab71808dcb408fe3d1e7690c43d37b4ce6cc0166fa7daa610220830152853561024083015260208601356102608301527f14cccd4e55b1c6dcbef61a8f4f221e239476f1ad17d5b95a09a7126db85c593a6102808301527f168f11abd07a1bcdd2cc6fa0db384aeb77da591f66991f50f3fa2e294d796c756102a08301527f164d8e9f28f3c9edad431f63d955ac347e43607dc0d003de36434ac15a8879906102c08301527f05b61d9924107e2f4d27ee5b14b320852f320e74a32b9e4acea46eb50f4014346102e08301526020826103008460086107d05a03fa82518116935050505095945050505050565b6040516103808101604052610d0660008401356107d8565b610d1360208401356107d8565b610d2060408401356107d8565b610d2d60608401356107d8565b610d3a60808401356107d8565b610d47818486888a610877565b8060005260206000f35b610d59611ab4565b60006001600085815260200190815260200160002060080160003373ffffffffffffffffffffffffffffffffffffffff1673ffffffffffffffffffffffffffffffffffffffff1681526020019081526020016000205414158015610e9857506001600084815260200190815260200160002060080160006001600086815260200190815260200160002060000160009054906101000a900473ffffffffffffffffffffffffffffffffffffffff1673ffffffffffffffffffffffffffffffffffffffff1673ffffffffffffffffffffffffffffffffffffffff168152602001908152602001600020546001600085815260200190815260200160002060080160003373ffffffffffffffffffffffffffffffffffffffff1673ffffffffffffffffffffffffffffffffffffffff16815260200190815260200160002054105b610ed7576040517f08c379a0000000000000000000000000000000000000000000000000000000008152600401610ece906129ec565b60405180910390fd5b336001600085815260200190815260200160002060000160006101000a81548173ffffffffffffffffffffffffffffffffffffffff021916908373ffffffffffffffffffffffffffffffffffffffff1602179055508015610f5557600160008481526020019081526020016000206002016000610f549190611e81565b5b600073ffffffffffffffffffffffffffffffffffffffff1682600081518110610f8157610f806125bb565b5b602002602001015173ffffffffffffffffffffffffffffffffffffffff16146111775760005b825181101561117557600160008581526020019081526020016000206008016000848381518110610fdb57610fda6125bb565b5b602002602001015173ffffffffffffffffffffffffffffffffffffffff1673ffffffffffffffffffffffffffffffffffffffff168152602001908152602001600020546001600086815260200190815260200160002060080160003373ffffffffffffffffffffffffffffffffffffffff1673ffffffffffffffffffffffffffffffffffffffff168152602001908152602001600020541015611162576001600085815260200190815260200160002060080160008483815181106110a3576110a26125bb565b5b602002602001015173ffffffffffffffffffffffffffffffffffffffff1673ffffffffffffffffffffffffffffffffffffffff168152602001908152602001600020600090556001600085815260200190815260200160002060090161112385858481518110611116576111156125bb565b5b6020026020010151611ba7565b81548110611134576111336125bb565b5b9060005260206000200160006101000a81549073ffffffffffffffffffffffffffffffffffffffff02191690555b808061116d90612619565b915050610fa7565b505b61117f611b04565b505050565b8160006001600083815260200190815260200160002060000160009054906101000a900473ffffffffffffffffffffffffffffffffffffffff1673ffffffffffffffffffffffffffffffffffffffff163373ffffffffffffffffffffffffffffffffffffffff1614156111fa57600190506112b5565b60005b600160008481526020019081526020016000205060058110156112b357600160008481526020019081526020016000206002018160058110611242576112416125bb565b5b0160009054906101000a900473ffffffffffffffffffffffffffffffffffffffff1673ffffffffffffffffffffffffffffffffffffffff163373ffffffffffffffffffffffffffffffffffffffff1614156112a057600191506112b3565b80806112ab90612619565b9150506111fd565b505b806112f5576040517f08c379a00000000000000000000000000000000000000000000000000000000081526004016112ec906126e5565b60405180910390fd5b6112fd611ab4565b60056001600086815260200190815260200160002050600510611355576040517f08c379a000000000000000000000000000000000000000000000000000000000815260040161134c90612a7e565b60405180910390fd5b826001600086815260200190815260200160002060020160016000878152602001908152602001600020506005808110611392576113916125bb565b5b0160006101000a81548173ffffffffffffffffffffffffffffffffffffffff021916908373ffffffffffffffffffffffffffffffffffffffff1602179055506113d9611b04565b50505050565b60606001600083815260200190815260200160002060090180548060200260200160405190810160405280929190818152602001828054801561147757602002820191906000526020600020905b8160009054906101000a900473ffffffffffffffffffffffffffffffffffffffff1673ffffffffffffffffffffffffffffffffffffffff168152602001906001019080831161142d575b50505050509050919050565b8160006001600083815260200190815260200160002060000160009054906101000a900473ffffffffffffffffffffffffffffffffffffffff1673ffffffffffffffffffffffffffffffffffffffff163373ffffffffffffffffffffffffffffffffffffffff1614156114f957600190506115b4565b60005b600160008481526020019081526020016000205060058110156115b257600160008481526020019081526020016000206002018160058110611541576115406125bb565b5b0160009054906101000a900473ffffffffffffffffffffffffffffffffffffffff1673ffffffffffffffffffffffffffffffffffffffff163373ffffffffffffffffffffffffffffffffffffffff16141561159f57600191506115b2565b80806115aa90612619565b9150506114fc565b505b806115f4576040517f08c379a00000000000000000000000000000000000000000000000000000000081526004016115eb906126e5565b60405180910390fd5b6115fc611ab4565b60006001600086815260200190815260200160002060080160008573ffffffffffffffffffffffffffffffffffffffff1673ffffffffffffffffffffffffffffffffffffffff16815260200190815260200160002054141561172857426001600086815260200190815260200160002060080160008573ffffffffffffffffffffffffffffffffffffffff1673ffffffffffffffffffffffffffffffffffffffff1681526020019081526020016000208190555060016000858152602001908152602001600020600901839080600181540180825580915050600190039060005260206000200160009091909190916101000a81548173ffffffffffffffffffffffffffffffffffffffff021916908373ffffffffffffffffffffffffffffffffffffffff1602179055505b826001600086815260200190815260200160002060000160006101000a81548173ffffffffffffffffffffffffffffffffffffffff021916908373ffffffffffffffffffffffffffffffffffffffff160217905550611785611b04565b50505050565b600260009054906101000a900473ffffffffffffffffffffffffffffffffffffffff1673ffffffffffffffffffffffffffffffffffffffff163373ffffffffffffffffffffffffffffffffffffffff161461181b576040517f08c379a000000000000000000000000000000000000000000000000000000000815260040161181290612b10565b60405180910390fd5b611823611ab4565b61182c81611ca7565b9050600073ffffffffffffffffffffffffffffffffffffffff166001600085815260200190815260200160002060000160009054906101000a900473ffffffffffffffffffffffffffffffffffffffff1673ffffffffffffffffffffffffffffffffffffffff16146118d3576040517f08c379a00000000000000000000000000000000000000000000000000000000081526004016118ca90612b7c565b60405180910390fd5b6118dc83611ce7565b6118e582611d80565b6118ee81611ce7565b816001600085815260200190815260200160002060000160006101000a81548173ffffffffffffffffffffffffffffffffffffffff021916908373ffffffffffffffffffffffffffffffffffffffff160217905550426001600085815260200190815260200160002060080160008473ffffffffffffffffffffffffffffffffffffffff1673ffffffffffffffffffffffffffffffffffffffff1681526020019081526020016000208190555060016000848152602001908152602001600020600901829080600181540180825580915050600190039060005260206000200160009091909190916101000a81548173ffffffffffffffffffffffffffffffffffffffff021916908373ffffffffffffffffffffffffffffffffffffffff160217905550806001600085815260200190815260200160002060010181905550600060016000858152602001908152602001600020600701600083815260200190815260200160002060006101000a81548160ff021916908315150217905550827f4454071d8d9d80afa35872d7fbe0a33e682f0b60b27fa6dd449390cfaed1ab2c8383604051611a9f929190612bab565b60405180910390a2611aaf611b04565b505050565b60026000541415611afa576040517f08c379a0000000000000000000000000000000000000000000000000000000008152600401611af190612c20565b60405180910390fd5b6002600081905550565b6001600081905550565b611ba481604051602401611b229190612c4f565b6040516020818303038152906040527ff82c50f1000000000000000000000000000000000000000000000000000000007bffffffffffffffffffffffffffffffffffffffffffffffffffffffff19166020820180517bffffffffffffffffffffffffffffffffffffffffffffffffffffffff8381831617835250505050611e19565b50565b600080600090505b60016000858152602001908152602001600020506005811015611c65578273ffffffffffffffffffffffffffffffffffffffff16600160008681526020019081526020016000206002018260058110611c0b57611c0a6125bb565b5b0160009054906101000a900473ffffffffffffffffffffffffffffffffffffffff1673ffffffffffffffffffffffffffffffffffffffff161415611c525780915050611ca1565b8080611c5d90612619565b915050611baf565b506040517f08c379a0000000000000000000000000000000000000000000000000000000008152600401611c9890612cb6565b60405180910390fd5b92915050565b6000807f30644e72e131a029b85045b68181585d2833e84879b9709143e1f593f00000019050808360001c611cdc9190612d05565b60001b915050919050565b611d7d81604051602401611cfb9190612d36565b6040516020818303038152906040527f27b7cf85000000000000000000000000000000000000000000000000000000007bffffffffffffffffffffffffffffffffffffffffffffffffffffffff19166020820180517bffffffffffffffffffffffffffffffffffffffffffffffffffffffff8381831617835250505050611e19565b50565b611e1681604051602401611d949190611eef565b6040516020818303038152906040527f2c2ecbc2000000000000000000000000000000000000000000000000000000007bffffffffffffffffffffffffffffffffffffffffffffffffffffffff19166020820180517bffffffffffffffffffffffffffffffffffffffffffffffffffffffff8381831617835250505050611e19565b50565b611e3081611e28611e33611e54565b63ffffffff16565b50565b60006a636f6e736f6c652e6c6f679050600080835160208501845afa505050565b611ea4819050919050565b6040518060a00160405280600590602082028036833780820191505090505090565b506000815560010160008155600101600081556001016000815560010160009055565b611eac612d51565b565b600073ffffffffffffffffffffffffffffffffffffffff82169050919050565b6000611ed982611eae565b9050919050565b611ee981611ece565b82525050565b6000602082019050611f046000830184611ee0565b92915050565b6000819050919050565b6000611f2f611f2a611f2584611eae565b611f0a565b611eae565b9050919050565b6000611f4182611f14565b9050919050565b6000611f5382611f36565b9050919050565b611f6381611f48565b82525050565b6000602082019050611f7e6000830184611f5a565b92915050565b6000604051905090565b600080fd5b600080fd5b6000819050919050565b611fab81611f98565b8114611fb657600080fd5b50565b600081359050611fc881611fa2565b92915050565b6000819050919050565b611fe181611fce565b8114611fec57600080fd5b50565b600081359050611ffe81611fd8565b92915050565b61200d81611ece565b811461201857600080fd5b50565b60008135905061202a81612004565b92915050565b60008060006060848603121561204957612048611f8e565b5b600061205786828701611fb9565b935050602061206886828701611fef565b92505060406120798682870161201b565b9150509250925092565b60006020828403121561209957612098611f8e565b5b60006120a784828501611fb9565b91505092915050565b600060059050919050565b600081905092915050565b6000819050919050565b6120d981611ece565b82525050565b60006120eb83836120d0565b60208301905092915050565b6000602082019050919050565b61210d816120b0565b61211781846120bb565b9250612122826120c6565b8060005b8381101561215357815161213a87826120df565b9650612145836120f7565b925050600181019050612126565b505050505050565b600060a0820190506121706000830184612104565b92915050565b600080fd5b60008190508260206002028201111561219757612196612176565b5b92915050565b6000819050826040600202820111156121b9576121b8612176565b5b92915050565b6000819050826020600402820111156121db576121da612176565b5b92915050565b60008060008061018085870312156121fc576121fb611f8e565b5b600061220a8782880161217b565b945050604061221b8782880161219d565b93505060c061222c8782880161217b565b92505061010061223e878288016121bf565b91505092959194509250565b60008115159050919050565b61225f8161224a565b82525050565b600060208201905061227a6000830184612256565b92915050565b600080fd5b6000601f19601f8301169050919050565b7f4e487b7100000000000000000000000000000000000000000000000000000000600052604160045260246000fd5b6122ce82612285565b810181811067ffffffffffffffff821117156122ed576122ec612296565b5b80604052505050565b6000612300611f84565b905061230c82826122c5565b919050565b600067ffffffffffffffff82111561232c5761232b612296565b5b602082029050602081019050919050565b600061235061234b84612311565b6122f6565b9050808382526020820190506020840283018581111561237357612372612176565b5b835b8181101561239c5780612388888261201b565b845260208401935050602081019050612375565b5050509392505050565b600082601f8301126123bb576123ba612280565b5b81356123cb84826020860161233d565b91505092915050565b6123dd8161224a565b81146123e857600080fd5b50565b6000813590506123fa816123d4565b92915050565b60008060006060848603121561241957612418611f8e565b5b600061242786828701611fb9565b935050602084013567ffffffffffffffff81111561244857612447611f93565b5b612454868287016123a6565b9250506040612465868287016123eb565b9150509250925092565b6000806040838503121561248657612485611f8e565b5b600061249485828601611fb9565b92505060206124a58582860161201b565b9150509250929050565b600081519050919050565b600082825260208201905092915050565b6000819050602082019050919050565b6000602082019050919050565b60006124f3826124af565b6124fd81856124ba565b9350612508836124cb565b8060005b8381101561253957815161252088826120df565b975061252b836124db565b92505060018101905061250c565b5085935050505092915050565b6000602082019050818103600083015261256081846124e8565b905092915050565b60008060006060848603121561258157612580611f8e565b5b600061258f86828701611fb9565b93505060206125a08682870161201b565b92505060406125b186828701611fb9565b9150509250925092565b7f4e487b7100000000000000000000000000000000000000000000000000000000600052603260045260246000fd5b7f4e487b7100000000000000000000000000000000000000000000000000000000600052601160045260246000fd5b600061262482611fce565b91507fffffffffffffffffffffffffffffffffffffffffffffffffffffffffffffffff821415612657576126566125ea565b5b600182019050919050565b600082825260208201905092915050565b7f4f6e6c7920746865206f776e6572206f72206173736f6369617465642061646460008201527f726573732063616e2063616c6c20746869732066756e6374696f6e0000000000602082015250565b60006126cf603b83612662565b91506126da82612673565b604082019050919050565b600060208201905081810360008301526126fe816126c2565b9050919050565b7f54686520696e646578206973206265747765656e20307e340000000000000000600082015250565b600061273b601883612662565b915061274682612705565b602082019050919050565b6000602082019050818103600083015261276a8161272e565b9050919050565b82818337600083830152505050565b61278c60408383612771565b5050565b600060029050919050565b600081905092915050565b6000819050919050565b6127bc60408383612771565b5050565b60006127cc83836127b0565b60408301905092915050565b600082905092915050565b6000604082019050919050565b6127f981612790565b612803818461279b565b925061280e826127a6565b8060005b838110156128475761282482846127d8565b61282e87826127c0565b9650612839836127e3565b925050600181019050612812565b505050505050565b61285b60808383612771565b5050565b6000610180820190506128756000830187612780565b61288260408301866127f0565b61288f60c0830185612780565b61289d61010083018461284f565b95945050505050565b6000815190506128b5816123d4565b92915050565b6000602082840312156128d1576128d0611f8e565b5b60006128df848285016128a6565b91505092915050565b7f50726f6f66206973206e6f742076616c69640000000000000000000000000000600082015250565b600061291e601283612662565b9150612929826128e8565b602082019050919050565b6000602082019050818103600083015261294d81612911565b9050919050565b7f6d73672e73656e646572206e6f7420696e206f776e6572486973746f7279206f60008201527f72207468652074696d65206973206c61746572207468616e2063757272656e7460208201527f206f776e65720000000000000000000000000000000000000000000000000000604082015250565b60006129d6604683612662565b91506129e182612954565b606082019050919050565b60006020820190508181036000830152612a05816129c9565b9050919050565b7f546865206e756d626572206f66206173736f636961746564206164647265737360008201527f20697320757020746f2035000000000000000000000000000000000000000000602082015250565b6000612a68602b83612662565b9150612a7382612a0c565b604082019050919050565b60006020820190508181036000830152612a9781612a5b565b9050919050565b7f4f6e6c792074686520726567697374657220636f6e74726163742063616e206360008201527f616c6c20746869732066756e6374696f6e000000000000000000000000000000602082015250565b6000612afa603183612662565b9150612b0582612a9e565b604082019050919050565b60006020820190508181036000830152612b2981612aed565b9050919050565b7f4964656e7469747920616c726561647920657869737473000000000000000000600082015250565b6000612b66601783612662565b9150612b7182612b30565b602082019050919050565b60006020820190508181036000830152612b9581612b59565b9050919050565b612ba581611f98565b82525050565b6000604082019050612bc06000830185611ee0565b612bcd6020830184612b9c565b9392505050565b7f5265656e7472616e637947756172643a207265656e7472616e742063616c6c00600082015250565b6000612c0a601f83612662565b9150612c1582612bd4565b602082019050919050565b60006020820190508181036000830152612c3981612bfd565b9050919050565b612c4981611fce565b82525050565b6000602082019050612c646000830184612c40565b92915050565b7f496e646578206e6f7420666f756e642100000000000000000000000000000000600082015250565b6000612ca0601083612662565b9150612cab82612c6a565b602082019050919050565b60006020820190508181036000830152612ccf81612c93565b9050919050565b7f4e487b7100000000000000000000000000000000000000000000000000000000600052601260045260246000fd5b6000612d1082611fce565b9150612d1b83611fce565b925082612d2b57612d2a612cd6565b5b828206905092915050565b6000602082019050612d4b6000830184612b9c565b92915050565b7f4e487b7100000000000000000000000000000000000000000000000000000000600052605160045260246000fdfea2646970667358221220c3cd9a0ad9ee30c715451f9004fa9ec6d4b945fe9e8c69a96d95059f8c3729a064736f6c634300080b0033608060405234801561001057600080fd5b50610725806100206000396000f3fe608060405234801561001057600080fd5b506004361061002b5760003560e01c80635fe8c13b14610030575b600080fd5b61004a60048036038101906100459190610650565b610060565b60405161005791906106d4565b60405180910390f35b600061057d565b7f30644e72e131a029b85045b68181585d97816a916871ca8d3c208c16d87cfd478110610098576000805260206000f35b50565b600060405183815284602082015285604082015260408160608360076107d05a03fa9150816100ce576000805260206000f35b825160408201526020830151606082015260408360808360066107d05a03fa9150816100fe576000805260206000f35b505050505050565b600060808601600087017f279388a26a1469cdde3f30df161dbdf10e27ce7ead435e66d5c2a2098f8d0f0681527f1c262578e6885e8f27a2cd6187b07300991dc744aa02d528b528481edf19ec8560208201526101a960008801357f1c1d92aeeaa9372de1bc7887c4a4247416d7586614f04599f0af3e6fd9a1a5137f286a8102b8c3d1f851c36ad1c8108ff15c0dafb77794d58e3cf38bfd769f7fb08461009b565b6101f960208801357f0ae3ba8035f8d5014b8a57d1fd2c886d9eda7e8709f162960add8bdba0d6693b7f0e2b7af7afd0f9d743ceb8db8f315f709e296ea2d032afdea2546db9e3827f378461009b565b61024960408801357f16fb9adb378a72a0a21fb9dce2cead6cc8c07ead310e40bd331a12536b2490e07f25b163240658542ce8c6133d65468a8797c862b25ef6b7ed3a1f9de31a8a78818461009b565b61029960608801357f03407c16b4872ceaa6d209c7023491a82ee118e9e90927cd67965258ca53ede37f0ca097bbd8c8d267857100a90c0a43868ec8a6e6fc16bb07cfdc0ec32af924c68461009b565b833582527f30644e72e131a029b85045b68181585d97816a916871ca8d3c208c16d87cfd4760208501357f30644e72e131a029b85045b68181585d97816a916871ca8d3c208c16d87cfd4703066020830152843560408301526020850135606083015260408501356080830152606085013560a08301527f2d4d9aa7e302d9df41749d5507949d05dbea33fbb16c643b22f599a2be6df2e260c08301527f14bedd503c37ceb061d8ec60209fe345ce89830a19230301f076caff004d192660e08301527f0967032fcbf776d1afc985f88877f182d38480a653f2decaa9794cbc3bf3060c6101008301527f0e187847ad4c798374d0d6732bf501847dd68bc0e071241e0213bc7fc13db7ab6101208301527f304cfbd1e08a704a99f5e847d93f8c3caafddec46b7a0d379da69a4d112346a76101408301527f1739c1b1a457a8c7313123d24d2f9192f896b7c63eea05a9d57f06547ad0cec8610160830152600088015161018083015260206000018801516101a08301527f198e9393920d483a7260bfb731fb5d25f1aa493335a9e71297e485b7aef312c26101c08301527f1800deef121f1e76426a00665e5c4479674322d4f75edadd46debd5cd992f6ed6101e08301527f090689d0585ff075ec9e99ad690c3395bc4b313370b38ef355acdadcd122975b6102008301527f12c85ea5db8c6deb4aab71808dcb408fe3d1e7690c43d37b4ce6cc0166fa7daa610220830152853561024083015260208601356102608301527f14cccd4e55b1c6dcbef61a8f4f221e239476f1ad17d5b95a09a7126db85c593a6102808301527f168f11abd07a1bcdd2cc6fa0db384aeb77da591f66991f50f3fa2e294d796c756102a08301527f164d8e9f28f3c9edad431f63d955ac347e43607dc0d003de36434ac15a8879906102c08301527f05b61d9924107e2f4d27ee5b14b320852f320e74a32b9e4acea46eb50f4014346102e08301526020826103008460086107d05a03fa82518116935050505095945050505050565b60405161038081016040526105956000840135610067565b6105a26020840135610067565b6105af6040840135610067565b6105bc6060840135610067565b6105c96080840135610067565b6105d6818486888a610106565b8060005260206000f35b600080fd5b600080fd5b600081905082602060020282011115610606576106056105e5565b5b92915050565b600081905082604060020282011115610628576106276105e5565b5b92915050565b60008190508260206004028201111561064a576106496105e5565b5b92915050565b600080600080610180858703121561066b5761066a6105e0565b5b6000610679878288016105ea565b945050604061068a8782880161060c565b93505060c061069b878288016105ea565b9250506101006106ad8782880161062e565b91505092959194509250565b60008115159050919050565b6106ce816106b9565b82525050565b60006020820190506106e960008301846106c5565b9291505056fea264697066735822122044aecedf8ed378a0fdb6ec6420d83f152eaa8e486c2a45b6271b1330378d0aba64736f6c634300080b0033",
  "devdoc": {
    "kind": "dev",
    "methods": {},
    "version": 1
  },
  "userdoc": {
    "kind": "user",
    "methods": {},
    "version": 1
  },
  "storageLayout": {
    "storage": [
      {
        "astId": 10,
        "contract": "contracts/NewIdentity.sol:NewIdentity",
        "label": "_status",
        "offset": 0,
        "slot": "0",
        "type": "t_uint256"
      },
      {
        "astId": 101,
        "contract": "contracts/NewIdentity.sol:NewIdentity",
        "label": "identities",
        "offset": 0,
        "slot": "1",
        "type": "t_mapping(t_bytes32,t_struct(Identity)93_storage)"
      },
      {
        "astId": 103,
        "contract": "contracts/NewIdentity.sol:NewIdentity",
        "label": "register",
        "offset": 0,
        "slot": "2",
        "type": "t_address"
      }
    ],
    "types": {
      "t_address": {
        "encoding": "inplace",
        "label": "address",
        "numberOfBytes": "20"
      },
      "t_array(t_address)5_storage": {
        "base": "t_address",
        "encoding": "inplace",
        "label": "address[5]",
        "numberOfBytes": "160"
      },
      "t_array(t_address)dyn_storage": {
        "base": "t_address",
        "encoding": "dynamic_array",
        "label": "address[]",
        "numberOfBytes": "32"
      },
      "t_bool": {
        "encoding": "inplace",
        "label": "bool",
        "numberOfBytes": "1"
      },
      "t_bytes32": {
        "encoding": "inplace",
        "label": "bytes32",
        "numberOfBytes": "32"
      },
      "t_mapping(t_address,t_uint256)": {
        "encoding": "mapping",
        "key": "t_address",
        "label": "mapping(address => uint256)",
        "numberOfBytes": "32",
        "value": "t_uint256"
      },
      "t_mapping(t_bytes32,t_bool)": {
        "encoding": "mapping",
        "key": "t_bytes32",
        "label": "mapping(bytes32 => bool)",
        "numberOfBytes": "32",
        "value": "t_bool"
      },
      "t_mapping(t_bytes32,t_struct(Identity)93_storage)": {
        "encoding": "mapping",
        "key": "t_bytes32",
        "label": "mapping(bytes32 => struct NewIdentity.Identity)",
        "numberOfBytes": "32",
        "value": "t_struct(Identity)93_storage"
      },
      "t_struct(Identity)93_storage": {
        "encoding": "inplace",
        "label": "struct NewIdentity.Identity",
        "members": [
          {
            "astId": 75,
            "contract": "contracts/NewIdentity.sol:NewIdentity",
            "label": "owner",
            "offset": 0,
            "slot": "0",
            "type": "t_address"
          },
          {
            "astId": 77,
            "contract": "contracts/NewIdentity.sol:NewIdentity",
            "label": "root",
            "offset": 0,
            "slot": "1",
            "type": "t_bytes32"
          },
          {
            "astId": 81,
            "contract": "contracts/NewIdentity.sol:NewIdentity",
            "label": "assciatedAddress",
            "offset": 0,
            "slot": "2",
            "type": "t_array(t_address)5_storage"
          },
          {
            "astId": 85,
            "contract": "contracts/NewIdentity.sol:NewIdentity",
            "label": "used",
            "offset": 0,
            "slot": "7",
            "type": "t_mapping(t_bytes32,t_bool)"
          },
          {
            "astId": 89,
            "contract": "contracts/NewIdentity.sol:NewIdentity",
            "label": "ownerHistory",
            "offset": 0,
            "slot": "8",
            "type": "t_mapping(t_address,t_uint256)"
          },
          {
            "astId": 92,
            "contract": "contracts/NewIdentity.sol:NewIdentity",
            "label": "ownerKeys",
            "offset": 0,
            "slot": "9",
            "type": "t_array(t_address)dyn_storage"
          }
        ],
        "numberOfBytes": "320"
      },
      "t_uint256": {
        "encoding": "inplace",
        "label": "uint256",
        "numberOfBytes": "32"
      }
    }
  }
}